{
  "contractName": "PaymentGatewayContract",
  "abi": [
    {
      "constant": true,
      "inputs": [],
      "name": "owner",
      "outputs": [
        {
          "name": "",
          "type": "address"
        }
      ],
      "payable": false,
      "stateMutability": "view",
      "type": "function"
    },
    {
      "constant": false,
      "inputs": [
        {
          "name": "_newOwner",
          "type": "address"
        }
      ],
      "name": "transferOwnership",
      "outputs": [],
      "payable": false,
      "stateMutability": "nonpayable",
      "type": "function"
    },
    {
      "inputs": [],
      "payable": false,
      "stateMutability": "nonpayable",
      "type": "constructor"
    },
    {
      "anonymous": false,
      "inputs": [
        {
          "indexed": false,
          "name": "merchant",
          "type": "address"
        }
      ],
      "name": "AddMerchantEvent",
      "type": "event"
    },
    {
      "anonymous": false,
      "inputs": [
        {
          "indexed": false,
          "name": "_merchant",
          "type": "address"
        },
        {
          "indexed": false,
          "name": "_reference",
          "type": "string"
        },
        {
          "indexed": false,
          "name": "_amount",
          "type": "uint256"
        }
      ],
      "name": "PaymentMadeEvent",
      "type": "event"
    },
    {
      "anonymous": false,
      "inputs": [
        {
          "indexed": false,
          "name": "_walletAddress",
          "type": "address"
        },
        {
          "indexed": false,
          "name": "_amount",
          "type": "uint256"
        }
      ],
      "name": "WithdrawGatewayFundsEvent",
      "type": "event"
    },
    {
      "anonymous": false,
      "inputs": [
        {
          "indexed": false,
          "name": "_walletAddress",
          "type": "address"
        },
        {
          "indexed": false,
          "name": "_amount",
          "type": "uint256"
        }
      ],
      "name": "WithdrawPaymentEvent",
      "type": "event"
    },
    {
      "anonymous": false,
      "inputs": [
        {
          "indexed": true,
          "name": "previousOwner",
          "type": "address"
        },
        {
          "indexed": true,
          "name": "newOwner",
          "type": "address"
        }
      ],
      "name": "OwnershipTransferred",
      "type": "event"
    },
    {
      "constant": false,
      "inputs": [
        {
          "name": "_walletAddress",
          "type": "address"
        }
      ],
      "name": "addMerchant",
      "outputs": [],
      "payable": false,
      "stateMutability": "nonpayable",
      "type": "function"
    },
    {
      "constant": false,
      "inputs": [
        {
          "name": "_merchantAddress",
          "type": "address"
        },
        {
          "name": "_reference",
          "type": "string"
        }
      ],
      "name": "makePayment",
      "outputs": [],
      "payable": true,
      "stateMutability": "payable",
      "type": "function"
    },
    {
      "constant": false,
      "inputs": [
        {
          "name": "_merchantAddress",
          "type": "address"
        }
      ],
      "name": "withdrawPayment",
      "outputs": [],
      "payable": false,
      "stateMutability": "nonpayable",
      "type": "function"
    },
    {
      "constant": false,
      "inputs": [
        {
          "name": "_newFee",
          "type": "uint256"
        }
      ],
      "name": "setGatewayFee",
      "outputs": [],
      "payable": false,
      "stateMutability": "nonpayable",
      "type": "function"
    },
    {
      "constant": false,
      "inputs": [],
      "name": "withdrawGatewayFees",
      "outputs": [],
      "payable": false,
      "stateMutability": "nonpayable",
      "type": "function"
    },
    {
      "constant": true,
      "inputs": [
        {
          "name": "_merchantAddress",
          "type": "address"
        }
      ],
      "name": "getMerchantBalance",
      "outputs": [
        {
          "name": "",
          "type": "address"
        },
        {
          "name": "",
          "type": "uint256"
        }
      ],
      "payable": false,
      "stateMutability": "view",
      "type": "function"
    },
    {
      "constant": true,
      "inputs": [],
      "name": "getGatewayBalance",
      "outputs": [
        {
          "name": "",
          "type": "uint256"
        }
      ],
      "payable": false,
      "stateMutability": "view",
      "type": "function"
    }
  ],
  "bytecode": "0x608060405234801561001057600080fd5b50336000806101000a81548173ffffffffffffffffffffffffffffffffffffffff021916908373ffffffffffffffffffffffffffffffffffffffff160217905550336000806101000a81548173ffffffffffffffffffffffffffffffffffffffff021916908373ffffffffffffffffffffffffffffffffffffffff160217905550600a6001819055506000600281905550336000806101000a81548173ffffffffffffffffffffffffffffffffffffffff021916908373ffffffffffffffffffffffffffffffffffffffff160217905550610efa806100f06000396000f300608060405260043610610099576000357c0100000000000000000000000000000000000000000000000000000000900463ffffffff168063352210631461009e57806346a0ff42146100c957806363c742ad146100f65780638ac28d5a146101805780638da5cb5b146101c3578063bf76c0ef1461021a578063c3bad6ef1461025d578063e62646b2146102d9578063f2fde38b146102f0575b600080fd5b3480156100aa57600080fd5b506100b3610333565b6040518082815260200191505060405180910390f35b3480156100d557600080fd5b506100f460048036038101908080359060200190929190505050610398565b005b34801561010257600080fd5b50610137600480360381019080803573ffffffffffffffffffffffffffffffffffffffff16906020019092919050505061040c565b604051808373ffffffffffffffffffffffffffffffffffffffff1673ffffffffffffffffffffffffffffffffffffffff1681526020018281526020019250505060405180910390f35b34801561018c57600080fd5b506101c1600480360381019080803573ffffffffffffffffffffffffffffffffffffffff1690602001909291905050506104ac565b005b3480156101cf57600080fd5b506101d8610605565b604051808273ffffffffffffffffffffffffffffffffffffffff1673ffffffffffffffffffffffffffffffffffffffff16815260200191505060405180910390f35b34801561022657600080fd5b5061025b600480360381019080803573ffffffffffffffffffffffffffffffffffffffff16906020019092919050505061062a565b005b6102d7600480360381019080803573ffffffffffffffffffffffffffffffffffffffff169060200190929190803590602001908201803590602001908080601f0160208091040260200160405190810160405280939291908181526020018383808284378201915050505050509192919290505050610791565b005b3480156102e557600080fd5b506102ee6108ce565b005b3480156102fc57600080fd5b50610331600480360381019080803573ffffffffffffffffffffffffffffffffffffffff169060200190929190505050610a2b565b005b60008060009054906101000a900473ffffffffffffffffffffffffffffffffffffffff1673ffffffffffffffffffffffffffffffffffffffff163373ffffffffffffffffffffffffffffffffffffffff1614151561039057600080fd5b600254905090565b6000809054906101000a900473ffffffffffffffffffffffffffffffffffffffff1673ffffffffffffffffffffffffffffffffffffffff163373ffffffffffffffffffffffffffffffffffffffff161415156103f357600080fd5b60648110151561040257600080fd5b8060018190555050565b600080610417610eb2565b61042084610a92565b151561042b57600080fd5b600360008573ffffffffffffffffffffffffffffffffffffffff1673ffffffffffffffffffffffffffffffffffffffff168152602001908152602001600020604080519081016040529081600082015481526020016001820160009054906101000a900460ff16151515158152505090508381600001519250925050915091565b60006104b782610a92565b15156104c257600080fd5b600360008373ffffffffffffffffffffffffffffffffffffffff1673ffffffffffffffffffffffffffffffffffffffff1681526020019081526020016000206000015490508173ffffffffffffffffffffffffffffffffffffffff166108fc829081150290604051600060405180830381858888f1935050505015801561054d573d6000803e3d6000fd5b506000600360008473ffffffffffffffffffffffffffffffffffffffff1673ffffffffffffffffffffffffffffffffffffffff168152602001908152602001600020600001819055507f0a1c427727ab052938e3fb91b7971a61da1642a5feef55ba605922d29cf9309d8282604051808373ffffffffffffffffffffffffffffffffffffffff1673ffffffffffffffffffffffffffffffffffffffff1681526020018281526020019250505060405180910390a15050565b6000809054906101000a900473ffffffffffffffffffffffffffffffffffffffff1681565b610632610eb2565b6000809054906101000a900473ffffffffffffffffffffffffffffffffffffffff1673ffffffffffffffffffffffffffffffffffffffff163373ffffffffffffffffffffffffffffffffffffffff1614151561068d57600080fd5b61069682610b29565b1515156106a257600080fd5b60408051908101604052806000815260200160011515815250905080600360008473ffffffffffffffffffffffffffffffffffffffff1673ffffffffffffffffffffffffffffffffffffffff1681526020019081526020016000206000820151816000015560208201518160010160006101000a81548160ff0219169083151502179055509050507f0b9a48907377b43ed369cfb9f3a6e0a227cc67c0c3d021a6d730ead8092a1f5f82604051808273ffffffffffffffffffffffffffffffffffffffff1673ffffffffffffffffffffffffffffffffffffffff16815260200191505060405180910390a15050565b60008061079d83610b82565b1515156107a957600080fd5b6107b284610b29565b15156107bd57600080fd5b6107c634610bb6565b91506107d460025483610bd7565b6002819055506107e43483610bf3565b90506107f08482610c0c565b7ff5d63d972959a5f348a678fecf03e193d81d866eb024fbff3884a5d27a18a058848434604051808473ffffffffffffffffffffffffffffffffffffffff1673ffffffffffffffffffffffffffffffffffffffff16815260200180602001838152602001828103825284818151815260200191508051906020019080838360005b8381101561088c578082015181840152602081019050610871565b50505050905090810190601f1680156108b95780820380516001836020036101000a031916815260200191505b5094505050505060405180910390a150505050565b6000809054906101000a900473ffffffffffffffffffffffffffffffffffffffff1673ffffffffffffffffffffffffffffffffffffffff163373ffffffffffffffffffffffffffffffffffffffff1614151561092957600080fd5b6000809054906101000a900473ffffffffffffffffffffffffffffffffffffffff1673ffffffffffffffffffffffffffffffffffffffff166108fc6002549081150290604051600060405180830381858888f19350505050158015610992573d6000803e3d6000fd5b507fc4a9fb192b4600264dcf192d3546d29c26071097bebf0a83b7b83b28bcc3ad016000809054906101000a900473ffffffffffffffffffffffffffffffffffffffff16600254604051808373ffffffffffffffffffffffffffffffffffffffff1673ffffffffffffffffffffffffffffffffffffffff1681526020018281526020019250505060405180910390a16000600281905550565b6000809054906101000a900473ffffffffffffffffffffffffffffffffffffffff1673ffffffffffffffffffffffffffffffffffffffff163373ffffffffffffffffffffffffffffffffffffffff16141515610a8657600080fd5b610a8f81610ca8565b50565b60008060009054906101000a900473ffffffffffffffffffffffffffffffffffffffff1673ffffffffffffffffffffffffffffffffffffffff163373ffffffffffffffffffffffffffffffffffffffff161415610af25760019050610b24565b8173ffffffffffffffffffffffffffffffffffffffff163373ffffffffffffffffffffffffffffffffffffffff161490505b919050565b6000600360008373ffffffffffffffffffffffffffffffffffffffff1673ffffffffffffffffffffffffffffffffffffffff16815260200190815260200160002060010160009054906101000a900460ff169050919050565b6000610b9d6020604051908101604052806000815250610da2565b60001916610baa83610da2565b60001916149050919050565b60006064610bc683600154610e7a565b811515610bcf57fe5b049050919050565b60008183019050828110151515610bea57fe5b80905092915050565b6000828211151515610c0157fe5b818303905092915050565b6000600360008473ffffffffffffffffffffffffffffffffffffffff1673ffffffffffffffffffffffffffffffffffffffff168152602001908152602001600020600001549050610c5d8183610bd7565b600360008573ffffffffffffffffffffffffffffffffffffffff1673ffffffffffffffffffffffffffffffffffffffff16815260200190815260200160002060000181905550505050565b600073ffffffffffffffffffffffffffffffffffffffff168173ffffffffffffffffffffffffffffffffffffffff1614151515610ce457600080fd5b8073ffffffffffffffffffffffffffffffffffffffff166000809054906101000a900473ffffffffffffffffffffffffffffffffffffffff1673ffffffffffffffffffffffffffffffffffffffff167f8be0079c531659141344cd1fd0a4f28419497f9722a3daafe3b4186f6b6457e060405160405180910390a3806000806101000a81548173ffffffffffffffffffffffffffffffffffffffff021916908373ffffffffffffffffffffffffffffffffffffffff16021790555050565b6000816040516020018082805190602001908083835b602083101515610ddd5780518252602082019150602081019050602083039250610db8565b6001836020036101000a0380198251168184511680821785525050505050509050019150506040516020818303038152906040526040518082805190602001908083835b602083101515610e465780518252602082019150602081019050602083039250610e21565b6001836020036101000a03801982511681845116808217855250505050505090500191505060405180910390209050919050565b600080831415610e8d5760009050610eac565b8183029050818382811515610e9e57fe5b04141515610ea857fe5b8090505b92915050565b60408051908101604052806000815260200160001515815250905600a165627a7a72305820c971969254402ebed1576830f89aec4cdd25f2071e7c5a782d61f0e79574346f0029",
  "source": "pragma solidity ^0.4.23;\r\nimport \"./math/SafeMath.sol\";\r\nimport \"./ownership/Ownable.sol\";\r\n\r\ncontract PaymentGatewayContract is Ownable{\r\n    using SafeMath for uint256;\r\n    uint gatewayFeePercentage;\r\n    uint256 gatewayBalance;\r\n    mapping(address => Merchant) merchants;\r\n\r\n    event AddMerchantEvent(address merchant);\r\n    event PaymentMadeEvent(address _merchant, string _reference, uint _amount);\r\n    event WithdrawGatewayFundsEvent(address _walletAddress, uint _amount);\r\n    event WithdrawPaymentEvent(address _walletAddress, uint _amount);\r\n\r\n    constructor() public {\r\n        owner = msg.sender;\r\n        gatewayFeePercentage = 10;\r\n        gatewayBalance = 0;\r\n        owner = msg.sender;\r\n    }\r\n\r\n    function addMerchant(address _walletAddress) public onlyOwner {\r\n        require(!isExistingMerchant(_walletAddress));\r\n        Merchant memory newMerchant = Merchant({ balance: 0, created: true});\r\n        merchants[_walletAddress] = newMerchant;\r\n        emit AddMerchantEvent(_walletAddress);\r\n    }\r\n\r\n    function makePayment(address _merchantAddress, string _reference) payable public{\r\n        require(!isStringEmpty(_reference));\r\n        require(isExistingMerchant(_merchantAddress));\r\n\r\n        uint gatewayFee = calculateGatewayFee(msg.value);\r\n        gatewayBalance = SafeMath.add(gatewayBalance, gatewayFee);\r\n\r\n        uint merchantPayment = SafeMath.sub(msg.value, gatewayFee);\r\n        addPaymentToMerchantBalance(_merchantAddress, merchantPayment);\r\n\r\n        emit PaymentMadeEvent(_merchantAddress, _reference, msg.value);\r\n    }\r\n\r\n    function addPaymentToMerchantBalance(address _merchantAddress, uint256 _paymentAmount) private {\r\n        uint256 currentBalance = merchants[_merchantAddress].balance;\r\n        merchants[_merchantAddress].balance = SafeMath.add(currentBalance, _paymentAmount);\r\n    }\r\n\r\n    function withdrawPayment(address _merchantAddress) public{\r\n        require(permittedToAccessAccount(_merchantAddress));\r\n        uint merchBalance = merchants[_merchantAddress].balance;\r\n        _merchantAddress.transfer(merchBalance);\r\n        merchants[_merchantAddress].balance = 0;\r\n        emit WithdrawPaymentEvent(_merchantAddress, merchBalance);\r\n    }\r\n\r\n    // Fees\r\n    function setGatewayFee(uint _newFee) onlyOwner public{\r\n        require(_newFee < 100);\r\n        gatewayFeePercentage = _newFee;\r\n    }\r\n\r\n    function withdrawGatewayFees() onlyOwner public{\r\n        owner.transfer(gatewayBalance);\r\n        emit WithdrawGatewayFundsEvent(owner, gatewayBalance);                \r\n        gatewayBalance = 0;\r\n    }\r\n\r\n    // Read only functions\r\n    function getMerchantBalance(address _merchantAddress) public view returns(address, uint){\r\n        require(permittedToAccessAccount(_merchantAddress));        \r\n        Merchant memory merchant = merchants[_merchantAddress];\r\n        return (_merchantAddress, merchant.balance);\r\n    }\r\n\r\n    function getGatewayBalance() public onlyOwner view returns(uint){\r\n        return gatewayBalance;\r\n    }\r\n\r\n    // Calculations\r\n    function calculateGatewayFee(uint _amount) private view returns(uint fee){\r\n        return SafeMath.mul(_amount, gatewayFeePercentage) / 100;\r\n    }\r\n\r\n    // Require functions\r\n    function permittedToAccessAccount(address _address) private view returns (bool valid){\r\n        if(msg.sender == owner){\r\n            return true;\r\n        }\r\n        return msg.sender == _address;\r\n    }\r\n\r\n    function isExistingMerchant(address _merchantAddress) internal view returns (bool){\r\n        return merchants[_merchantAddress].created;\r\n    }\r\n\r\n    function isStringEqual(string _input_a, string _input_b) private pure returns(bool){\r\n        return keccakHash(_input_a) == keccakHash(_input_b);\r\n    }\r\n\r\n    function isStringEmpty(string _input) private pure returns(bool){\r\n        return keccakHash(_input) == keccakHash(\"\");\r\n    }\r\n\r\n\r\n    function keccakHash(string _input) private pure returns (bytes32){\r\n        return keccak256(abi.encodePacked(_input));\r\n    }\r\n\r\n    struct Merchant{\r\n        uint balance;\r\n        bool created;\r\n    }\r\n}",
  "sourcePath": "C:\\Sandbox\\ethPaymentGateway\\contracts\\PaymentGatewayContract.sol",
  "compiler": {
    "name": "solc",
    "version": "0.4.24+commit.e67f0147.Emscripten.clang"
  },
  "schemaVersion": "2.0.0",
  "updatedAt": "2018-06-19T11:16:08.366Z"
}