{
  "contractName": "PaymentGatewayContract",
  "abi": [
    {
      "constant": true,
      "inputs": [],
      "name": "owner",
      "outputs": [
        {
          "name": "",
          "type": "address"
        }
      ],
      "payable": false,
      "stateMutability": "view",
      "type": "function"
    },
    {
      "constant": false,
      "inputs": [
        {
          "name": "_newOwner",
          "type": "address"
        }
      ],
      "name": "transferOwnership",
      "outputs": [],
      "payable": false,
      "stateMutability": "nonpayable",
      "type": "function"
    },
    {
      "inputs": [],
      "payable": false,
      "stateMutability": "nonpayable",
      "type": "constructor"
    },
    {
      "anonymous": false,
      "inputs": [
        {
          "indexed": false,
          "name": "merchant",
          "type": "address"
        }
      ],
      "name": "AddMerchantEvent",
      "type": "event"
    },
    {
      "anonymous": false,
      "inputs": [
        {
          "indexed": false,
          "name": "_merchant",
          "type": "address"
        },
        {
          "indexed": false,
          "name": "_reference",
          "type": "string"
        },
        {
          "indexed": false,
          "name": "_amount",
          "type": "uint256"
        }
      ],
      "name": "PaymentMadeEvent",
      "type": "event"
    },
    {
      "anonymous": false,
      "inputs": [
        {
          "indexed": false,
          "name": "_merchant",
          "type": "address"
        },
        {
          "indexed": false,
          "name": "_reference",
          "type": "string"
        },
        {
          "indexed": false,
          "name": "_tokenAmount",
          "type": "uint256"
        }
      ],
      "name": "PaymentMadeInTokensEvent",
      "type": "event"
    },
    {
      "anonymous": false,
      "inputs": [
        {
          "indexed": false,
          "name": "_walletAddress",
          "type": "address"
        },
        {
          "indexed": false,
          "name": "_amount",
          "type": "uint256"
        }
      ],
      "name": "WithdrawGatewayFundsEvent",
      "type": "event"
    },
    {
      "anonymous": false,
      "inputs": [
        {
          "indexed": false,
          "name": "_walletAddress",
          "type": "address"
        },
        {
          "indexed": false,
          "name": "_amount",
          "type": "uint256"
        }
      ],
      "name": "WithdrawPaymentEvent",
      "type": "event"
    },
    {
      "anonymous": false,
      "inputs": [
        {
          "indexed": true,
          "name": "previousOwner",
          "type": "address"
        },
        {
          "indexed": true,
          "name": "newOwner",
          "type": "address"
        }
      ],
      "name": "OwnershipTransferred",
      "type": "event"
    },
    {
      "constant": false,
      "inputs": [
        {
          "name": "_tokenContractAddress",
          "type": "address"
        }
      ],
      "name": "setTokenContract",
      "outputs": [],
      "payable": false,
      "stateMutability": "nonpayable",
      "type": "function"
    },
    {
      "constant": false,
      "inputs": [
        {
          "name": "_recipient",
          "type": "address"
        },
        {
          "name": "_amount",
          "type": "uint256"
        }
      ],
      "name": "issueTokens",
      "outputs": [],
      "payable": false,
      "stateMutability": "nonpayable",
      "type": "function"
    },
    {
      "constant": false,
      "inputs": [
        {
          "name": "_walletAddress",
          "type": "address"
        }
      ],
      "name": "addMerchant",
      "outputs": [],
      "payable": false,
      "stateMutability": "nonpayable",
      "type": "function"
    },
    {
      "constant": false,
      "inputs": [
        {
          "name": "_merchantAddress",
          "type": "address"
        },
        {
          "name": "_reference",
          "type": "string"
        }
      ],
      "name": "makePayment",
      "outputs": [],
      "payable": true,
      "stateMutability": "payable",
      "type": "function"
    },
    {
      "constant": false,
      "inputs": [
        {
          "name": "_merchantAddress",
          "type": "address"
        },
        {
          "name": "_reference",
          "type": "string"
        },
        {
          "name": "_tokenAmount",
          "type": "uint256"
        }
      ],
      "name": "makePaymentInTokens",
      "outputs": [],
      "payable": false,
      "stateMutability": "nonpayable",
      "type": "function"
    },
    {
      "constant": false,
      "inputs": [
        {
          "name": "_merchantAddress",
          "type": "address"
        }
      ],
      "name": "withdrawPayment",
      "outputs": [],
      "payable": false,
      "stateMutability": "nonpayable",
      "type": "function"
    },
    {
      "constant": false,
      "inputs": [
        {
          "name": "_newFee",
          "type": "uint256"
        }
      ],
      "name": "setGatewayFee",
      "outputs": [],
      "payable": false,
      "stateMutability": "nonpayable",
      "type": "function"
    },
    {
      "constant": false,
      "inputs": [],
      "name": "withdrawGatewayFees",
      "outputs": [],
      "payable": false,
      "stateMutability": "nonpayable",
      "type": "function"
    },
    {
      "constant": true,
      "inputs": [
        {
          "name": "_merchantAddress",
          "type": "address"
        }
      ],
      "name": "getMerchantBalance",
      "outputs": [
        {
          "name": "",
          "type": "address"
        },
        {
          "name": "",
          "type": "uint256"
        }
      ],
      "payable": false,
      "stateMutability": "view",
      "type": "function"
    },
    {
      "constant": true,
      "inputs": [],
      "name": "getGatewayBalance",
      "outputs": [
        {
          "name": "",
          "type": "uint256"
        }
      ],
      "payable": false,
      "stateMutability": "view",
      "type": "function"
    }
  ],
  "bytecode": "0x608060405234801561001057600080fd5b50336000806101000a81548173ffffffffffffffffffffffffffffffffffffffff021916908373ffffffffffffffffffffffffffffffffffffffff160217905550600a6001819055506000600281905550611480806100706000396000f3006080604052600436106100ba576000357c0100000000000000000000000000000000000000000000000000000000900463ffffffff16806335221063146100bf57806346a0ff42146100ea578063475a9fa91461011757806363c742ad146101645780636e9f7472146101ee5780638ac28d5a146102815780638da5cb5b146102c4578063bbcd5bbe1461031b578063bf76c0ef1461035e578063c3bad6ef146103a1578063e62646b21461041d578063f2fde38b14610434575b600080fd5b3480156100cb57600080fd5b506100d4610477565b6040518082815260200191505060405180910390f35b3480156100f657600080fd5b50610115600480360381019080803590602001909291905050506104dc565b005b34801561012357600080fd5b50610162600480360381019080803573ffffffffffffffffffffffffffffffffffffffff16906020019092919080359060200190929190505050610550565b005b34801561017057600080fd5b506101a5600480360381019080803573ffffffffffffffffffffffffffffffffffffffff1690602001909291905050506106b0565b604051808373ffffffffffffffffffffffffffffffffffffffff1673ffffffffffffffffffffffffffffffffffffffff1681526020018281526020019250505060405180910390f35b3480156101fa57600080fd5b5061027f600480360381019080803573ffffffffffffffffffffffffffffffffffffffff169060200190929190803590602001908201803590602001908080601f016020809104026020016040519081016040528093929190818152602001838380828437820191505050505050919291929080359060200190929190505050610750565b005b34801561028d57600080fd5b506102c2600480360381019080803573ffffffffffffffffffffffffffffffffffffffff16906020019092919050505061098f565b005b3480156102d057600080fd5b506102d9610ae8565b604051808273ffffffffffffffffffffffffffffffffffffffff1673ffffffffffffffffffffffffffffffffffffffff16815260200191505060405180910390f35b34801561032757600080fd5b5061035c600480360381019080803573ffffffffffffffffffffffffffffffffffffffff169060200190929190505050610b0d565b005b34801561036a57600080fd5b5061039f600480360381019080803573ffffffffffffffffffffffffffffffffffffffff169060200190929190505050610bac565b005b61041b600480360381019080803573ffffffffffffffffffffffffffffffffffffffff169060200190929190803590602001908201803590602001908080601f0160208091040260200160405190810160405280939291908181526020018383808284378201915050505050509192919290505050610d13565b005b34801561042957600080fd5b50610432610e54565b005b34801561044057600080fd5b50610475600480360381019080803573ffffffffffffffffffffffffffffffffffffffff169060200190929190505050610fb1565b005b60008060009054906101000a900473ffffffffffffffffffffffffffffffffffffffff1673ffffffffffffffffffffffffffffffffffffffff163373ffffffffffffffffffffffffffffffffffffffff161415156104d457600080fd5b600254905090565b6000809054906101000a900473ffffffffffffffffffffffffffffffffffffffff1673ffffffffffffffffffffffffffffffffffffffff163373ffffffffffffffffffffffffffffffffffffffff1614151561053757600080fd5b60648110151561054657600080fd5b8060018190555050565b6000809054906101000a900473ffffffffffffffffffffffffffffffffffffffff1673ffffffffffffffffffffffffffffffffffffffff163373ffffffffffffffffffffffffffffffffffffffff161415156105ab57600080fd5b600460009054906101000a900473ffffffffffffffffffffffffffffffffffffffff1673ffffffffffffffffffffffffffffffffffffffff1663475a9fa983836040518363ffffffff167c0100000000000000000000000000000000000000000000000000000000028152600401808373ffffffffffffffffffffffffffffffffffffffff1673ffffffffffffffffffffffffffffffffffffffff16815260200182815260200192505050602060405180830381600087803b15801561067057600080fd5b505af1158015610684573d6000803e3d6000fd5b505050506040513d602081101561069a57600080fd5b8101908080519060200190929190505050505050565b6000806106bb611438565b6106c484611018565b15156106cf57600080fd5b600360008573ffffffffffffffffffffffffffffffffffffffff1673ffffffffffffffffffffffffffffffffffffffff168152602001908152602001600020604080519081016040529081600082015481526020016001820160009054906101000a900460ff16151515158152505090508381600001519250925050915091565b828261075b816110af565b15151561076757600080fd5b610770826110e3565b151561077b57600080fd5b600460009054906101000a900473ffffffffffffffffffffffffffffffffffffffff1673ffffffffffffffffffffffffffffffffffffffff16636e5089e13387866040518463ffffffff167c0100000000000000000000000000000000000000000000000000000000028152600401808473ffffffffffffffffffffffffffffffffffffffff1673ffffffffffffffffffffffffffffffffffffffff1681526020018373ffffffffffffffffffffffffffffffffffffffff1673ffffffffffffffffffffffffffffffffffffffff1681526020018281526020019350505050602060405180830381600087803b15801561087457600080fd5b505af1158015610888573d6000803e3d6000fd5b505050506040513d602081101561089e57600080fd5b8101908080519060200190929190505050507f61052ba846455d626b94b6ca75f12c7de1dbb1776c57b358d61a8a233ac55813858585604051808473ffffffffffffffffffffffffffffffffffffffff1673ffffffffffffffffffffffffffffffffffffffff16815260200180602001838152602001828103825284818151815260200191508051906020019080838360005b8381101561094c578082015181840152602081019050610931565b50505050905090810190601f1680156109795780820380516001836020036101000a031916815260200191505b5094505050505060405180910390a15050505050565b600061099a82611018565b15156109a557600080fd5b600360008373ffffffffffffffffffffffffffffffffffffffff1673ffffffffffffffffffffffffffffffffffffffff1681526020019081526020016000206000015490508173ffffffffffffffffffffffffffffffffffffffff166108fc829081150290604051600060405180830381858888f19350505050158015610a30573d6000803e3d6000fd5b506000600360008473ffffffffffffffffffffffffffffffffffffffff1673ffffffffffffffffffffffffffffffffffffffff168152602001908152602001600020600001819055507f0a1c427727ab052938e3fb91b7971a61da1642a5feef55ba605922d29cf9309d8282604051808373ffffffffffffffffffffffffffffffffffffffff1673ffffffffffffffffffffffffffffffffffffffff1681526020018281526020019250505060405180910390a15050565b6000809054906101000a900473ffffffffffffffffffffffffffffffffffffffff1681565b6000809054906101000a900473ffffffffffffffffffffffffffffffffffffffff1673ffffffffffffffffffffffffffffffffffffffff163373ffffffffffffffffffffffffffffffffffffffff16141515610b6857600080fd5b80600460006101000a81548173ffffffffffffffffffffffffffffffffffffffff021916908373ffffffffffffffffffffffffffffffffffffffff16021790555050565b610bb4611438565b6000809054906101000a900473ffffffffffffffffffffffffffffffffffffffff1673ffffffffffffffffffffffffffffffffffffffff163373ffffffffffffffffffffffffffffffffffffffff16141515610c0f57600080fd5b610c18826110e3565b151515610c2457600080fd5b60408051908101604052806000815260200160011515815250905080600360008473ffffffffffffffffffffffffffffffffffffffff1673ffffffffffffffffffffffffffffffffffffffff1681526020019081526020016000206000820151816000015560208201518160010160006101000a81548160ff0219169083151502179055509050507f0b9a48907377b43ed369cfb9f3a6e0a227cc67c0c3d021a6d730ead8092a1f5f82604051808273ffffffffffffffffffffffffffffffffffffffff1673ffffffffffffffffffffffffffffffffffffffff16815260200191505060405180910390a15050565b6000808383610d21816110af565b151515610d2d57600080fd5b610d36826110e3565b1515610d4157600080fd5b610d4a3461113c565b9350610d586002548561115d565b600281905550610d683485611179565b9250610d748684611192565b7ff5d63d972959a5f348a678fecf03e193d81d866eb024fbff3884a5d27a18a058868634604051808473ffffffffffffffffffffffffffffffffffffffff1673ffffffffffffffffffffffffffffffffffffffff16815260200180602001838152602001828103825284818151815260200191508051906020019080838360005b83811015610e10578082015181840152602081019050610df5565b50505050905090810190601f168015610e3d5780820380516001836020036101000a031916815260200191505b5094505050505060405180910390a1505050505050565b6000809054906101000a900473ffffffffffffffffffffffffffffffffffffffff1673ffffffffffffffffffffffffffffffffffffffff163373ffffffffffffffffffffffffffffffffffffffff16141515610eaf57600080fd5b6000809054906101000a900473ffffffffffffffffffffffffffffffffffffffff1673ffffffffffffffffffffffffffffffffffffffff166108fc6002549081150290604051600060405180830381858888f19350505050158015610f18573d6000803e3d6000fd5b507fc4a9fb192b4600264dcf192d3546d29c26071097bebf0a83b7b83b28bcc3ad016000809054906101000a900473ffffffffffffffffffffffffffffffffffffffff16600254604051808373ffffffffffffffffffffffffffffffffffffffff1673ffffffffffffffffffffffffffffffffffffffff1681526020018281526020019250505060405180910390a16000600281905550565b6000809054906101000a900473ffffffffffffffffffffffffffffffffffffffff1673ffffffffffffffffffffffffffffffffffffffff163373ffffffffffffffffffffffffffffffffffffffff1614151561100c57600080fd5b6110158161122e565b50565b60008060009054906101000a900473ffffffffffffffffffffffffffffffffffffffff1673ffffffffffffffffffffffffffffffffffffffff163373ffffffffffffffffffffffffffffffffffffffff16141561107857600190506110aa565b8173ffffffffffffffffffffffffffffffffffffffff163373ffffffffffffffffffffffffffffffffffffffff161490505b919050565b60006110ca6020604051908101604052806000815250611328565b600019166110d783611328565b60001916149050919050565b6000600360008373ffffffffffffffffffffffffffffffffffffffff1673ffffffffffffffffffffffffffffffffffffffff16815260200190815260200160002060010160009054906101000a900460ff169050919050565b6000606461114c83600154611400565b81151561115557fe5b049050919050565b6000818301905082811015151561117057fe5b80905092915050565b600082821115151561118757fe5b818303905092915050565b6000600360008473ffffffffffffffffffffffffffffffffffffffff1673ffffffffffffffffffffffffffffffffffffffff1681526020019081526020016000206000015490506111e3818361115d565b600360008573ffffffffffffffffffffffffffffffffffffffff1673ffffffffffffffffffffffffffffffffffffffff16815260200190815260200160002060000181905550505050565b600073ffffffffffffffffffffffffffffffffffffffff168173ffffffffffffffffffffffffffffffffffffffff161415151561126a57600080fd5b8073ffffffffffffffffffffffffffffffffffffffff166000809054906101000a900473ffffffffffffffffffffffffffffffffffffffff1673ffffffffffffffffffffffffffffffffffffffff167f8be0079c531659141344cd1fd0a4f28419497f9722a3daafe3b4186f6b6457e060405160405180910390a3806000806101000a81548173ffffffffffffffffffffffffffffffffffffffff021916908373ffffffffffffffffffffffffffffffffffffffff16021790555050565b6000816040516020018082805190602001908083835b602083101515611363578051825260208201915060208101905060208303925061133e565b6001836020036101000a0380198251168184511680821785525050505050509050019150506040516020818303038152906040526040518082805190602001908083835b6020831015156113cc57805182526020820191506020810190506020830392506113a7565b6001836020036101000a03801982511681845116808217855250505050505090500191505060405180910390209050919050565b6000808314156114135760009050611432565b818302905081838281151561142457fe5b0414151561142e57fe5b8090505b92915050565b60408051908101604052806000815260200160001515815250905600a165627a7a72305820d86adef050668e7e6a5e854c882c6d68cb24bdac6cc3805b203c96a6d3668daa0029",
  "source": "pragma solidity ^0.4.23;\r\nimport \"./math/SafeMath.sol\";\r\nimport \"./ownership/Ownable.sol\";\r\nimport \"./GatewayERC20Contract.sol\";\r\n\r\ncontract PaymentGatewayContract is Ownable{\r\n    using SafeMath for uint256;\r\n    uint gatewayFeePercentage;\r\n    uint256 gatewayBalance;\r\n    mapping(address => Merchant) merchants;\r\n\r\n    GatewayERC20Contract tokenContract;\r\n\r\n    event AddMerchantEvent(address merchant);\r\n    event PaymentMadeEvent(address _merchant, string _reference, uint _amount);\r\n    event PaymentMadeInTokensEvent(address _merchant, string _reference, uint _tokenAmount);\r\n    event WithdrawGatewayFundsEvent(address _walletAddress, uint _amount);\r\n    event WithdrawPaymentEvent(address _walletAddress, uint _amount);\r\n\r\n    constructor() public {\r\n        gatewayFeePercentage = 10;\r\n        gatewayBalance = 0;\r\n    }\r\n\r\n    function setTokenContract(address _tokenContractAddress) public onlyOwner{\r\n        tokenContract = GatewayERC20Contract(_tokenContractAddress);\r\n    }\r\n\r\n    function issueTokens(address _recipient, uint _amount) public onlyOwner{\r\n        tokenContract.issueTokens(_recipient, _amount);\r\n    }\r\n\r\n\r\n    function addMerchant(address _walletAddress) public onlyOwner {\r\n        require(!isExistingMerchant(_walletAddress));\r\n        Merchant memory newMerchant = Merchant({ balance: 0, created: true});\r\n        merchants[_walletAddress] = newMerchant;\r\n        emit AddMerchantEvent(_walletAddress);\r\n    }\r\n\r\n    function makePayment(address _merchantAddress, string _reference) payable allowedToMakePayment(_merchantAddress, _reference) public{\r\n        uint gatewayFee = calculateGatewayFee(msg.value);\r\n        gatewayBalance = SafeMath.add(gatewayBalance, gatewayFee);\r\n\r\n        uint merchantPayment = SafeMath.sub(msg.value, gatewayFee);\r\n        addPaymentToMerchantBalance(_merchantAddress, merchantPayment);\r\n\r\n        emit PaymentMadeEvent(_merchantAddress, _reference, msg.value);\r\n    }\r\n\r\n    function makePaymentInTokens(address _merchantAddress, string _reference, uint _tokenAmount) \r\n        allowedToMakePayment(_merchantAddress, _reference) public{\r\n        tokenContract.gatewayTokenTransfer(msg.sender, _merchantAddress, _tokenAmount);\r\n        emit PaymentMadeInTokensEvent(_merchantAddress, _reference, _tokenAmount);\r\n    }\r\n\r\n    function addPaymentToMerchantBalance(address _merchantAddress, uint256 _paymentAmount) private {\r\n        uint256 currentBalance = merchants[_merchantAddress].balance;\r\n        merchants[_merchantAddress].balance = SafeMath.add(currentBalance, _paymentAmount);\r\n    }\r\n\r\n    function withdrawPayment(address _merchantAddress) public{\r\n        require(permittedToAccessAccount(_merchantAddress));\r\n        uint merchBalance = merchants[_merchantAddress].balance;\r\n        _merchantAddress.transfer(merchBalance);\r\n        merchants[_merchantAddress].balance = 0;\r\n        emit WithdrawPaymentEvent(_merchantAddress, merchBalance);\r\n    }\r\n\r\n    // Fees\r\n    function setGatewayFee(uint _newFee) onlyOwner public{\r\n        require(_newFee < 100);\r\n        gatewayFeePercentage = _newFee;\r\n    }\r\n\r\n    function withdrawGatewayFees() onlyOwner public{\r\n        owner.transfer(gatewayBalance);\r\n        emit WithdrawGatewayFundsEvent(owner, gatewayBalance);                \r\n        gatewayBalance = 0;\r\n    }\r\n\r\n    // Read only functions\r\n    function getMerchantBalance(address _merchantAddress) public view returns(address, uint){\r\n        require(permittedToAccessAccount(_merchantAddress));        \r\n        Merchant memory merchant = merchants[_merchantAddress];\r\n        return (_merchantAddress, merchant.balance);\r\n    }\r\n\r\n    function getGatewayBalance() public onlyOwner view returns(uint){\r\n        return gatewayBalance;\r\n    }\r\n\r\n    // Calculations\r\n    function calculateGatewayFee(uint _amount) private view returns(uint fee){\r\n        return SafeMath.mul(_amount, gatewayFeePercentage) / 100;\r\n    }\r\n\r\n    // Require functions\r\n    function permittedToAccessAccount(address _address) private view returns (bool valid){\r\n        if(msg.sender == owner){\r\n            return true;\r\n        }\r\n        return msg.sender == _address;\r\n    }\r\n\r\n    function isExistingMerchant(address _merchantAddress) internal view returns (bool){\r\n        return merchants[_merchantAddress].created;\r\n    }\r\n\r\n    function isStringEqual(string _input_a, string _input_b) private pure returns(bool){\r\n        return keccakHash(_input_a) == keccakHash(_input_b);\r\n    }\r\n\r\n    function isStringEmpty(string _input) private pure returns(bool){\r\n        return keccakHash(_input) == keccakHash(\"\");\r\n    }\r\n\r\n\r\n    function keccakHash(string _input) private pure returns (bytes32){\r\n        return keccak256(abi.encodePacked(_input));\r\n    }\r\n\r\n    modifier allowedToMakePayment(address _merchant, string _reference){\r\n        require(!isStringEmpty(_reference));\r\n        require(isExistingMerchant(_merchant));\r\n        _;\r\n    }\r\n\r\n    struct Merchant{\r\n        uint balance;\r\n        bool created;\r\n    }\r\n}",
  "sourcePath": "C:\\Sandbox\\ethPaymentGateway\\contracts\\PaymentGatewayContract.sol",
  "compiler": {
    "name": "solc",
    "version": "0.4.24+commit.e67f0147.Emscripten.clang"
  },
  "schemaVersion": "2.0.0",
  "updatedAt": "2018-06-20T13:55:33.885Z"
}