{
  "contractName": "Owned",
  "abi": [
    {
      "constant": false,
      "inputs": [],
      "name": "owned",
      "outputs": [],
      "payable": false,
      "stateMutability": "nonpayable",
      "type": "function"
    },
    {
      "constant": false,
      "inputs": [
        {
          "name": "newOwner",
          "type": "address"
        }
      ],
      "name": "transferOwnership",
      "outputs": [],
      "payable": false,
      "stateMutability": "nonpayable",
      "type": "function"
    }
  ],
  "bytecode": "0x608060405234801561001057600080fd5b506101f3806100206000396000f30060806040526004361061004c576000357c0100000000000000000000000000000000000000000000000000000000900463ffffffff168063df32754b14610051578063f2fde38b14610068575b600080fd5b34801561005d57600080fd5b506100666100ab565b005b34801561007457600080fd5b506100a9600480360381019080803573ffffffffffffffffffffffffffffffffffffffff1690602001909291905050506100ed565b005b336000806101000a81548173ffffffffffffffffffffffffffffffffffffffff021916908373ffffffffffffffffffffffffffffffffffffffff160217905550565b6000809054906101000a900473ffffffffffffffffffffffffffffffffffffffff1673ffffffffffffffffffffffffffffffffffffffff163373ffffffffffffffffffffffffffffffffffffffff1614151561014857600080fd5b600073ffffffffffffffffffffffffffffffffffffffff168173ffffffffffffffffffffffffffffffffffffffff161415151561018457600080fd5b806000806101000a81548173ffffffffffffffffffffffffffffffffffffffff021916908373ffffffffffffffffffffffffffffffffffffffff160217905550505600a165627a7a72305820859d594e1e1d173d9a9ac1942e8fcb023e360270f64cc35d270801c8e4d92aeb0029",
  "source": "pragma solidity ^0.4.23;\r\n\r\ncontract Owned{\r\n    function owned() public { owner = msg.sender; }\r\n    address owner;\r\n\r\n    modifier onlyOwner {\r\n        require(msg.sender == owner);\r\n        _;\r\n    }    \r\n\r\n    function transferOwnership(address newOwner) public onlyOwner {\r\n        require(newOwner != address(0));      \r\n        owner = newOwner;\r\n    }    \r\n}",
  "sourcePath": "C:\\Sandbox\\ethPaymentGateway\\contracts\\FunctionModifiers\\Owned.sol",
  "compiler": {
    "name": "solc",
    "version": "0.4.24+commit.e67f0147.Emscripten.clang"
  },
  "schemaVersion": "2.0.0",
  "updatedAt": "2018-06-05T13:23:38.059Z"
}