{
  "contractName": "PaymentGatewayContract",
  "abi": [
    {
      "constant": false,
      "inputs": [],
      "name": "owned",
      "outputs": [],
      "payable": false,
      "stateMutability": "nonpayable",
      "type": "function"
    },
    {
      "constant": false,
      "inputs": [
        {
          "name": "newOwner",
          "type": "address"
        }
      ],
      "name": "transferOwnership",
      "outputs": [],
      "payable": false,
      "stateMutability": "nonpayable",
      "type": "function"
    },
    {
      "inputs": [],
      "payable": false,
      "stateMutability": "nonpayable",
      "type": "constructor"
    },
    {
      "anonymous": false,
      "inputs": [
        {
          "indexed": false,
          "name": "description",
          "type": "string"
        },
        {
          "components": [
            {
              "name": "walletAddress",
              "type": "address"
            },
            {
              "name": "name",
              "type": "string"
            },
            {
              "name": "balance",
              "type": "uint256"
            }
          ],
          "indexed": false,
          "name": "merchant",
          "type": "tuple"
        }
      ],
      "name": "AddMerchantEvent",
      "type": "event"
    },
    {
      "anonymous": false,
      "inputs": [
        {
          "indexed": false,
          "name": "description",
          "type": "string"
        },
        {
          "indexed": false,
          "name": "_merchant",
          "type": "address"
        },
        {
          "indexed": false,
          "name": "_amount",
          "type": "uint256"
        }
      ],
      "name": "PaymentMadeEvent",
      "type": "event"
    },
    {
      "anonymous": false,
      "inputs": [
        {
          "indexed": false,
          "name": "description",
          "type": "string"
        },
        {
          "indexed": false,
          "name": "_walletAddress",
          "type": "address"
        },
        {
          "indexed": false,
          "name": "_amount",
          "type": "uint256"
        }
      ],
      "name": "WithdrawPaymentEvent",
      "type": "event"
    },
    {
      "constant": false,
      "inputs": [
        {
          "name": "_walletAddress",
          "type": "address"
        },
        {
          "name": "_name",
          "type": "string"
        }
      ],
      "name": "addMerchant",
      "outputs": [],
      "payable": false,
      "stateMutability": "nonpayable",
      "type": "function"
    },
    {
      "constant": true,
      "inputs": [
        {
          "name": "_merchantAddress",
          "type": "address"
        }
      ],
      "name": "getMerchant",
      "outputs": [
        {
          "name": "name",
          "type": "string"
        },
        {
          "name": "balance",
          "type": "uint256"
        }
      ],
      "payable": false,
      "stateMutability": "view",
      "type": "function"
    },
    {
      "constant": true,
      "inputs": [],
      "name": "getGatewayBalance",
      "outputs": [
        {
          "name": "",
          "type": "uint256"
        }
      ],
      "payable": false,
      "stateMutability": "view",
      "type": "function"
    },
    {
      "constant": false,
      "inputs": [
        {
          "name": "_merchantAddress",
          "type": "address"
        }
      ],
      "name": "makePayment",
      "outputs": [],
      "payable": true,
      "stateMutability": "payable",
      "type": "function"
    },
    {
      "constant": false,
      "inputs": [
        {
          "name": "_merchantAddress",
          "type": "address"
        }
      ],
      "name": "withdrawPayment",
      "outputs": [],
      "payable": false,
      "stateMutability": "nonpayable",
      "type": "function"
    },
    {
      "constant": false,
      "inputs": [],
      "name": "withdrawGatewayFees",
      "outputs": [],
      "payable": false,
      "stateMutability": "nonpayable",
      "type": "function"
    }
  ],
  "bytecode": "0x6080604052600a60015534801561001557600080fd5b5033600260006101000a81548173ffffffffffffffffffffffffffffffffffffffff021916908373ffffffffffffffffffffffffffffffffffffffff1602179055506000600381905550336000806101000a81548173ffffffffffffffffffffffffffffffffffffffff021916908373ffffffffffffffffffffffffffffffffffffffff160217905550610d91806100ae6000396000f30060806040526004361061008e576000357c0100000000000000000000000000000000000000000000000000000000900463ffffffff168063300be4fc1461009357806335221063146100c9578063613416ac146100f45780638ac28d5a1461017d578063b2734eaf146101c0578063df32754b14610283578063e62646b21461029a578063f2fde38b146102b1575b600080fd5b6100c7600480360381019080803573ffffffffffffffffffffffffffffffffffffffff1690602001909291905050506102f4565b005b3480156100d557600080fd5b506100de61044c565b6040518082815260200191505060405180910390f35b34801561010057600080fd5b5061017b600480360381019080803573ffffffffffffffffffffffffffffffffffffffff169060200190929190803590602001908201803590602001908080601f01602080910402602001604051908101604052809392919081815260200183838082843782019150505050505091929192905050506104b1565b005b34801561018957600080fd5b506101be600480360381019080803573ffffffffffffffffffffffffffffffffffffffff16906020019092919050505061066f565b005b3480156101cc57600080fd5b50610201600480360381019080803573ffffffffffffffffffffffffffffffffffffffff169060200190929190505050610848565b6040518080602001838152602001828103825284818151815260200191508051906020019080838360005b8381101561024757808201518184015260208101905061022c565b50505050905090810190601f1680156102745780820380516001836020036101000a031916815260200191505b50935050505060405180910390f35b34801561028f57600080fd5b506102986109ba565b005b3480156102a657600080fd5b506102af6109fc565b005b3480156102bd57600080fd5b506102f2600480360381019080803573ffffffffffffffffffffffffffffffffffffffff169060200190929190505050610b94565b005b600080600061030234610c6e565b92508234039150600460008573ffffffffffffffffffffffffffffffffffffffff1673ffffffffffffffffffffffffffffffffffffffff168152602001908152602001600020600201549050818101600460008673ffffffffffffffffffffffffffffffffffffffff1673ffffffffffffffffffffffffffffffffffffffff1681526020019081526020016000206002018190555082600354016003819055507ff20d2e7517082321a761afe0d443eec0aae1d392f88e2f9e36e5adf754c85565843460405180806020018473ffffffffffffffffffffffffffffffffffffffff1673ffffffffffffffffffffffffffffffffffffffff1681526020018381526020018281038252600c8152602001807f5061796d656e74206d6164650000000000000000000000000000000000000000815250602001935050505060405180910390a150505050565b60008060009054906101000a900473ffffffffffffffffffffffffffffffffffffffff1673ffffffffffffffffffffffffffffffffffffffff163373ffffffffffffffffffffffffffffffffffffffff161415156104a957600080fd5b600354905090565b6104b9610c88565b6000809054906101000a900473ffffffffffffffffffffffffffffffffffffffff1673ffffffffffffffffffffffffffffffffffffffff163373ffffffffffffffffffffffffffffffffffffffff1614151561051457600080fd5b6060604051908101604052808473ffffffffffffffffffffffffffffffffffffffff1681526020018381526020016000815250905080600460008573ffffffffffffffffffffffffffffffffffffffff1673ffffffffffffffffffffffffffffffffffffffff16815260200190815260200160002060008201518160000160006101000a81548173ffffffffffffffffffffffffffffffffffffffff021916908373ffffffffffffffffffffffffffffffffffffffff16021790555060208201518160010190805190602001906105ec929190610cc0565b50604082015181600201559050507fc912bdf692257ef7eab64c4861d089c3a86d7c49bf59bb8f229882101d077e79816040518080602001838152602001828103825260128152602001807f4e6577206d65726368616e7420616464656400000000000000000000000000008152506020019250505060405180910390a1505050565b60008060009054906101000a900473ffffffffffffffffffffffffffffffffffffffff1673ffffffffffffffffffffffffffffffffffffffff163373ffffffffffffffffffffffffffffffffffffffff161415156106cc57600080fd5b600460008373ffffffffffffffffffffffffffffffffffffffff1673ffffffffffffffffffffffffffffffffffffffff1681526020019081526020016000206002015490508173ffffffffffffffffffffffffffffffffffffffff166108fc829081150290604051600060405180830381858888f19350505050158015610757573d6000803e3d6000fd5b506000600460008473ffffffffffffffffffffffffffffffffffffffff1673ffffffffffffffffffffffffffffffffffffffff168152602001908152602001600020600201819055507f327c80bf26e8a2a86726d3bb7b94461d6f980f8e5b1ae5cf6dbe95b05fbc9286828260405180806020018473ffffffffffffffffffffffffffffffffffffffff1673ffffffffffffffffffffffffffffffffffffffff1681526020018381526020018281038252601b8152602001807f4d65726368616e74207061796d656e74207769746864726177616c0000000000815250602001935050505060405180910390a15050565b60606000610854610c88565b600460008573ffffffffffffffffffffffffffffffffffffffff1673ffffffffffffffffffffffffffffffffffffffff168152602001908152602001600020606060405190810160405290816000820160009054906101000a900473ffffffffffffffffffffffffffffffffffffffff1673ffffffffffffffffffffffffffffffffffffffff1673ffffffffffffffffffffffffffffffffffffffff168152602001600182018054600181600116156101000203166002900480601f01602080910402602001604051908101604052809291908181526020018280546001816001161561010002031660029004801561098e5780601f106109635761010080835404028352916020019161098e565b820191906000526020600020905b81548152906001019060200180831161097157829003601f168201915b505050505081526020016002820154815250509050806020015181604001518191509250925050915091565b336000806101000a81548173ffffffffffffffffffffffffffffffffffffffff021916908373ffffffffffffffffffffffffffffffffffffffff160217905550565b6000809054906101000a900473ffffffffffffffffffffffffffffffffffffffff1673ffffffffffffffffffffffffffffffffffffffff163373ffffffffffffffffffffffffffffffffffffffff16141515610a5757600080fd5b600260009054906101000a900473ffffffffffffffffffffffffffffffffffffffff1673ffffffffffffffffffffffffffffffffffffffff166108fc6003549081150290604051600060405180830381858888f19350505050158015610ac1573d6000803e3d6000fd5b5060006003819055507f327c80bf26e8a2a86726d3bb7b94461d6f980f8e5b1ae5cf6dbe95b05fbc9286600260009054906101000a900473ffffffffffffffffffffffffffffffffffffffff1660035460405180806020018473ffffffffffffffffffffffffffffffffffffffff1673ffffffffffffffffffffffffffffffffffffffff1681526020018381526020018281038252601a8152602001807f47617465776179207061796d656e74207769746864726177616c000000000000815250602001935050505060405180910390a1565b6000809054906101000a900473ffffffffffffffffffffffffffffffffffffffff1673ffffffffffffffffffffffffffffffffffffffff163373ffffffffffffffffffffffffffffffffffffffff16141515610bef57600080fd5b600073ffffffffffffffffffffffffffffffffffffffff168173ffffffffffffffffffffffffffffffffffffffff1614151515610c2b57600080fd5b806000806101000a81548173ffffffffffffffffffffffffffffffffffffffff021916908373ffffffffffffffffffffffffffffffffffffffff16021790555050565b600060646001548302811515610c8057fe5b049050919050565b606060405190810160405280600073ffffffffffffffffffffffffffffffffffffffff16815260200160608152602001600081525090565b828054600181600116156101000203166002900490600052602060002090601f016020900481019282601f10610d0157805160ff1916838001178555610d2f565b82800160010185558215610d2f579182015b82811115610d2e578251825591602001919060010190610d13565b5b509050610d3c9190610d40565b5090565b610d6291905b80821115610d5e576000816000905550600101610d46565b5090565b905600a165627a7a72305820edbf7994b3eadac84ba7aacd9097df9adc7b7e7ddff8c370497f67be822ec9650029",
  "source": "pragma solidity ^0.4.23;\r\nimport {Owned} from \"./FunctionModifiers/Owned.sol\";\r\n\r\ncontract PaymentGatewayContract is Owned{\r\n    uint gatewayFeePercentage = 10;\r\n    address gatewayWalletAddress;\r\n    uint gatewayBalance;\r\n    mapping(address => Merchant) merchants;\r\n    PaymentTx[] payments;\r\n\r\n    event AddMerchantEvent(string description, Merchant merchant);\r\n    event PaymentMadeEvent(string description, address _merchant, uint _amount);\r\n    event WithdrawPaymentEvent(string description, address _walletAddress, uint _amount);\r\n\r\n    constructor() public {\r\n        gatewayWalletAddress = msg.sender;\r\n        gatewayBalance = 0;\r\n        owner = msg.sender;\r\n    }\r\n\r\n    function addMerchant(address _walletAddress, string _name) public onlyOwner {\r\n        Merchant memory newMerchant = Merchant({ walletAddress: _walletAddress, name: _name, balance: 0});\r\n        merchants[_walletAddress] = newMerchant;\r\n        emit AddMerchantEvent(\"New merchant added\", newMerchant);\r\n    }\r\n\r\n    function getMerchant(address _merchantAddress) public view returns(string name, uint balance){\r\n        Merchant memory merchant = merchants[_merchantAddress];\r\n        return (merchant.name, merchant.balance);\r\n    }\r\n    \r\n    function getGatewayBalance() public onlyOwner view returns(uint){\r\n        return gatewayBalance;\r\n    }\r\n    \r\n    function makePayment(address _merchantAddress) payable public{\r\n        uint gatewayFee = calculateGatewayFee(msg.value);\r\n        uint merchantPayment = msg.value - gatewayFee;\r\n        uint merchBalance = merchants[_merchantAddress].balance;\r\n        merchants[_merchantAddress].balance = merchBalance + merchantPayment;\r\n        gatewayBalance = gatewayBalance + gatewayFee;\r\n        emit PaymentMadeEvent(\"Payment made\", _merchantAddress, msg.value);\r\n    }\r\n\r\n    function calculateGatewayFee(uint _amount) private view returns(uint fee){\r\n        return _amount * gatewayFeePercentage / 100;\r\n    }\r\n    \r\n    function withdrawPayment(address _merchantAddress) onlyOwner public{\r\n        uint merchBalance = merchants[_merchantAddress].balance;\r\n        _merchantAddress.transfer(merchBalance);\r\n        merchants[_merchantAddress].balance = 0;\r\n        emit WithdrawPaymentEvent(\"Merchant payment withdrawal\", _merchantAddress, merchBalance);\r\n    }\r\n\r\n    function withdrawGatewayFees() onlyOwner public{\r\n        gatewayWalletAddress.transfer(gatewayBalance);\r\n        gatewayBalance = 0;\r\n        emit WithdrawPaymentEvent(\"Gateway payment withdrawal\", gatewayWalletAddress, gatewayBalance);        \r\n    }\r\n\r\n    struct Merchant{\r\n        address walletAddress;\r\n        string name;\r\n        uint balance;\r\n    }\r\n\r\n    struct PaymentTx{\r\n        address sender;\r\n        uint amount;\r\n        bytes reference;\r\n    }\r\n}",
  "sourcePath": "C:\\Sandbox\\ethPaymentGateway\\contracts\\PaymentGatewayContract.sol",
  "compiler": {
    "name": "solc",
    "version": "0.4.24+commit.e67f0147.Emscripten.clang"
  },
  "schemaVersion": "2.0.0",
  "updatedAt": "2018-06-05T13:23:38.061Z"
}